:020000040800F2
:10000000005000208D050008150500081D0500089A
:10001000250500082D050008350500080000000032
:100020000000000000000000000000003D05000886
:10003000490500080000000055050008610500089A
:10004000D5050008D5050008D5050008D505000828
:10005000D5050008D5050008D5050008D505000818
:10006000D5050008D5050008D5050008D505000808
:10007000D5050008D50500086D050008D505000860
:10008000D5050008D5050008D5050008D5050008E8
:10009000D5050008D5050008D5050008D5050008D8
:1000A000D5050008D5050008D5050008D5050008C8
:1000B000D5050008D5050008D5050008D5050008B8
:1000C000D5050008D5050008D5050008D5050008A8
:1000D000D5050008D5050008D5050008D505000898
:1000E000D5050008D5050008D5050008000000006A
:1000F0000000000000000000000000000000000000
:0C01000000000000000000005FF808F1A3
:10010C0010B5054C237833B9044B13B10448AFF345
:10011C0000800123237010BD0C00002000000000A3
:10012C00B81B000808B5034B1BB103490348AFF3D8
:10013C00008008BD0000000010000020B81B000863
:10014C0080B483B000AF0346FB71FB795B0043F1D5
:10015C0000036FEA0303FB71FB7918460C37BD46AD
:10016C0080BC704780B582B000AFE723FB71F91DEE
:10017C004FF0FF330122054801F018FB322000F04C
:10018C0087FA00BF0837BD4680BD00BF280000209D
:10019C0090B5A5B000AF78600023C7F88C3013E0A1
:1001AC007B681A78D7F88C40631CC7F88C301046E3
:1001BC00FFF7C6FF03461A4604F190033B4403F8CD
:1001CC00842C7B6801337B607B681B78002B03D00D
:1001DC00D7F88C307F2BE3D9D7F88C309AB207F153
:1001EC000C014FF0FF33034801F0E0FA00BF9437E5
:1001FC00BD4690BD2800002080B500AF00F0E6F9A8
:10020C0000F010F800F092F800F072F800F046F8E8
:10021C00FFF7A8FF0248FFF7BBFF00BFFDE700BFD9
:10022C00D01B000880B590B000AF07F1180328224E
:10023C000021184601F08EFC3B1D00221A605A600A
:10024C009A60DA601A610223BB610123BB6210233E
:10025C00FB6200237B6307F11803184600F046FE8F
:10026C000346002B01D000F0A1F80F237B60002384
:10027C00BB600023FB6000233B6100237B613B1DC3
:10028C000021184601F0B4F80346002B01D000F011
:10029C008DF800BF4037BD4680BD000080B500AF73
:1002AC00114B124A1A60104B4FF416525A600E4BF7
:1002BC0000229A600C4B0022DA600B4B00221A6170
:1002CC00094B08225A61084B00229A61064B002206
:1002DC00DA61054801F01AFA0346002B01D000F050
:1002EC0065F800BF80BD00BF280000200038014029
:1002FC0080B582B000AF0C4B5B690B4A43F0010335
:10030C005361094B5B6903F001037B607B6800223E
:10031C0000210E2000F0B7FA0E2000F0D0FA00BF3A
:10032C000837BD4680BD00BF0010024080B586B0C6
:10033C0000AF07F1080300221A605A609A60DA6075
:10034C00184B9B69174A43F008039361154B9B6943
:10035C0003F008037B607B68124B9B69114A43F0E6
:10036C00040393610F4B9B6903F004033B603B68F0
:10037C0000224FF400510C4800F0A0FD4FF4005344
:10038C00BB600123FB6000233B6102237B6107F10F
:10039C0008031946044800F00DFC00BF1837BD4691
:1003AC0080BD00BF00100240000C014080B400AFC3
:1003BC0072B600BF00BFFDE780B485B000AF154B2F
:1003CC009B69144A43F001039361124B9B6903F040
:1003DC000103BB60BB680F4BDB690E4A43F08053D3
:1003EC00D3610C4BDB6903F080537B607B680A4B59
:1003FC005B68FB60FB6823F0E063FB60FB6843F029
:10040C000073FB60044AFB68536000BF1437BD46A1
:10041C0080BC7047001002400000014080B588B0DD
:10042C0000AF786007F1100300221A605A609A60DE
:10043C00DA607B681B682F4A934257D12E4B9B691D
:10044C002D4A43F4804393612B4B9B6903F4804307
:10045C00FB60FB68284B9B69274A43F004039361BC
:10046C00254B9B6903F00403BB60BB684FF400731E
:10047C003B6102237B610323FB6107F110031946E7
:10048C001E4800F097FB4FF480633B6100237B61B7
:10049C000023BB6107F110031946184800F08AFBD2
:1004AC00174B184A1A60164B10225A60144B002234
:1004BC009A60134B8022DA60114B00221A61104BA8
:1004CC0000225A610E4B00229A610D4B0022DA6118
:1004DC000B4800F00FFA0346002B01D0FFF766FF24
:1004EC007B68074A9A63064A7B68536200BF2037D1
:1004FC00BD4680BD0038014000100240000801409C
:10050C00700000204400024080B400AF00BFFDE743
:10051C0080B400AF00BFFDE780B400AF00BFFDE7C3
:10052C0080B400AF00BFFDE780B400AF00BFFDE7B3
:10053C0080B400AF00BFBD4680BC704780B400AF34
:10054C0000BFBD4680BC704780B400AF00BFBD4645
:10055C0080BC704780B500AF00F07EF800BF80BD56
:10056C0080B500AF024800F01FFA00BF80BD00BF8D
:10057C007000002080B400AF00BFBD4680BC704747
:10058C00FFF7F8FF0B480C490C4A002302E0D45843
:10059C00C4500433C4188C42F9D3094A094C0023C3
:1005AC0001E013600432A242FBD301F0DBFAFFF747
:1005BC0023FE7047000000200C000020181C0008CF
:1005CC000C000020B8000020FEE7000080B500AF52
:1005DC00084B1B68074A43F010031360032000F01C
:1005EC0047F90F2000F008F8FFF7E6FE0023184645
:1005FC0080BD00BF0020024080B582B000AF7860A3
:10060C00124B1A68124B1B7819464FF47A73B3FBD2
:10061C00F1F3B2FBF3F3184600F05FF90346002B3D
:10062C0001D001230EE07B680F2B0AD800227968D9
:10063C004FF0FF3000F027F9064A7B681360002367
:10064C0000E0012318460837BD4680BD000000209D
:10065C00080000200400002080B400AF054B1B787C
:10066C001A46054B1B681344034A136000BFBD4672
:10067C0080BC704708000020B400002080B400AF9C
:10068C00024B1B681846BD4680BC7047B400002066
:10069C0080B584B000AF7860FFF7F0FFB8607B687E
:1006AC00FB60FB68B3F1FF3F05D00A4B1B781A4681
:1006BC00FB681344FB6000BFFFF7E0FF0246BB681A
:1006CC00D31AFA689A42F7D800BF00BF1037BD465C
:1006DC0080BD00BF0800002080B485B000AF7860FA
:1006EC007B6803F00703FB600C4BDB68BB60BA68EC
:1006FC004FF6FF031340BB60FB681A02BB68134341
:10070C0043F0BF6343F40033BB60044ABB68D3605F
:10071C0000BF1437BD4680BC704700BF00ED00E041
:10072C0080B400AF044BDB681B0A03F007031846C8
:10073C00BD4680BC704700BF00ED00E080B483B0C4
:10074C0000AF0346FB7197F90730002B0BDBFB79ED
:10075C0003F01F02064997F907305B09012000FAE4
:10076C0002F241F8232000BF0C37BD4680BC704715
:10077C0000E100E080B483B000AF03463960FB7148
:10078C0097F90730002B0ADB3B68DAB20C4997F972
:10079C0007301201D2B20B4483F800230AE03B6805
:1007AC00DAB20849FB7903F00F03043B1201D2B211
:1007BC000B441A7600BF0C37BD4680BC704700BF97
:1007CC0000E100E000ED00E080B489B000AFF8601B
:1007DC00B9607A60FB6803F00703FB61FB69C3F146
:1007EC000703042B28BF0423BB61FB690433062BCE
:1007FC0002D9FB69033B00E000237B614FF0FF3221
:10080C00BB6902FA03F3DA43BB681A407B699A406E
:10081C004FF0FF317B6901FA03F3D9437B680B403E
:10082C00134318462437BD4680BC704780B582B050
:10083C0000AF78607B68013BB3F1807F01D301236B
:10084C000FE00A4A7B68013B53600F214FF0FF30E9
:10085C00FFF790FF054B00229A60044B07221A60A9
:10086C00002318460837BD4680BD00BF10E000E0ED
:10087C0080B582B000AF78607868FFF72DFF00BFBD
:10088C000837BD4680BD80B586B000AF0346B96061
:10089C007A60FB7300237B61FFF742FF78617A6813
:1008AC00B9687869FFF790FF024697F90F30114647
:1008BC001846FFF75FFF00BF1837BD4680BD80B5F7
:1008CC0082B000AF0346FB7197F907301846FFF76B
:1008DC0035FF00BF0837BD4680BD80B582B000AF84
:1008EC0078607868FFF7A2FF034618460837BD46C4
:1008FC0080BD000080B485B000AF78600023FB6041
:10090C007B68002B01D1012343E07B681B681A46EE
:10091C00224B1344224AA2FB03231B099A007B6837
:10092C001A647B681F4ADA637B68022283F82120F1
:10093C007B681B681B68FB60FB6823F47F5323F008
:10094C003003FB607B685A687B689B681A437B6842
:10095C00DB681A437B681B691A437B685B691A4323
:10096C007B689B691A437B68DB691343FA68134302
:10097C00FB607B681B68FA681A607B6800229A63CC
:10098C007B68012283F821207B68002283F82020D9
:10099C00002318461437BD4680BC7047F8FFFDBFD6
:1009AC00CDCCCCCC0000024080B584B000AF7860D8
:1009BC007B68DB6B1B68FB607B681B681B68BB6020
:1009CC007B681B6C04229A40FB681340002B4FD0B1
:1009DC00BB6803F00403002B4AD07B681B681B68C0
:1009EC0003F02003002B07D17B681B681A687B6817
:1009FC001B6822F004021A607B681B68664A9342EB
:100A0C0029D07B681B68654A934222D07B681B689F
:100A1C00634A93421AD07B681B68624A934212D095
:100A2C007B681B68604A93420AD07B681B685F4AEC
:100A3C00934202D14FF480030EE04FF080630BE041
:100A4C004FF4802308E04FF4804305E04FF48063BB
:100A5C0002E0402300E00423554A53607B68DB6AC4
:100A6C00002B00F094807B68DB6A786898478EE0F6
:100A7C007B681B6C02229A40FB681340002B56D0FB
:100A8C00BB6803F00203002B51D07B681B681B680A
:100A9C0003F02003002B0BD17B681B681A687B6862
:100AAC001B6822F00A021A607B68012283F821205D
:100ABC007B681B68384A934229D07B681B68374A8D
:100ACC00934222D07B681B68354A93421AD07B68CC
:100ADC001B68344A934212D07B681B68324A93429B
:100AEC000AD07B681B68314A934202D14FF4001341
:100AFC000EE04FF000730BE04FF4003308E04FF4BE
:100B0C00005305E04FF4007302E0202300E00223C1
:100B1C00274A53607B68002283F820207B689B6AFD
:100B2C00002B34D07B689B6A786898472FE07B68F1
:100B3C001B6C08229A40FB681340002B28D0BB6822
:100B4C0003F00803002B23D07B681B681A687B68B2
:100B5C001B6822F00E021A607B681A6C7B68DB6BD8
:100B6C00012101FA02F25A607B6801229A637B68C8
:100B7C00012283F821207B68002283F820207B68E7
:100B8C001B6B002B04D07B681B6B7868984700BFED
:100B9C0000BF1037BD4680BD080002401C0002405B
:100BAC003000024044000240580002406C000240F9
:100BBC000000024080B48BB000AF78603960002335
:100BCC007B6200233B6269E101227B6A02FA03F338
:100BDC00FB613B681B68FA691340BB61BA69FB692E
:100BEC009A4240F058813B685B689A4A93425ED0C7
:100BFC00984A934275D8984A934258D0964A934251
:100C0C006FD8964A934252D0944A934269D8944AE8
:100C1C0093424CD0924A934263D8924A934246D024
:100C2C00904A93425DD8122B2AD8122B59D801A284
:100C3C0052F823F0BB0C0008950C0008A70C000818
:100C4C00E90C0008EF0C0008EF0C0008EF0C000892
:100C5C00EF0C0008EF0C0008EF0C0008EF0C00087C
:100C6C00EF0C0008EF0C0008EF0C0008EF0C00086C
:100C7C00EF0C0008EF0C00089D0C0008B10C0008EC
:100C8C00794A934213D02CE03B68DB683B6229E045
:100C9C003B68DB6804333B6224E03B68DB68083369
:100CAC003B621FE03B68DB680C333B621AE03B683D
:100CBC009B68002B02D104233B6213E03B689B68CA
:100CCC00012B05D108233B627B68FA691A6109E0A4
:100CDC0008233B627B68FA695A6103E000233B629C
:100CEC0000E000BFBB69FF2B01D87B6801E07B688B
:100CFC0004337B61BB69FF2B02D87B6A9B0002E04B
:100D0C007B6A083B9B003B617B691A680F213B693E
:100D1C0001FA03F3DB431A40396A3B6901FA03F326
:100D2C001A437B691A603B685B6803F08053002BA5
:100D3C0000F0B1804D4B9B694C4A43F00103936129
:100D4C004A4B9B6903F00103BB60BB68484A7B6A52
:100D5C009B08023352F82330FB607B6A03F00303D9
:100D6C009B000F2202FA03F3DB43FA681340FB608B
:100D7C007B68404A934213D07B683F4A93420DD024
:100D8C007B683E4A934207D07B683D4A934201D12F
:100D9C00032306E0042304E0022302E0012300E025
:100DAC0000237A6A02F0030292009340FA6813431C
:100DBC00FB602F497B6A9B080233FA6841F82320B9
:100DCC003B685B6803F48013002B06D02D4B9A68AC
:100DDC002C49BB6913438B6006E02A4B9A68BB69AC
:100DEC00DB43284913408B603B685B6803F40013BA
:100DFC00002B06D0234BDA682249BB691343CB6026
:100E0C0006E0204BDA68BB69DB431E491340CB601C
:100E1C003B685B6803F40033002B06D0194B5A680F
:100E2C001849BB6913434B6006E0164B5A68BB6903
:100E3C00DB43144913404B603B685B6803F480331D
:100E4C00002B21D00F4B1A680E49BB6913430B6062
:100E5C0021E000BF00003210000031100000221011
:100E6C0000002110000012100000111000100240B0
:100E7C000000014000080140000C0140001001403E
:100E8C0000140140000401400B4B1A68BB69DB43A2
:100E9C00094913400B607B6A01337B623B681A681B
:100EAC007B6A22FA03F3002B7FF48EAE00BF00BFE7
:100EBC002C37BD4680BC70470004014080B483B021
:100ECC0000AF78600B467B8013467B707B78002BE1
:100EDC0003D07A887B681A6103E07B881A047B68EC
:100EEC001A6100BF0C37BD4680BC704780B586B018
:100EFC0000AF78607B68002B01D1012372E27B6824
:100F0C001B6803F00103002B00F08780924B5B6899
:100F1C0003F00C03042B0CD08F4B5B6803F00C0319
:100F2C00082B12D18C4B5B6803F48033B3F5803FF4
:100F3C000BD1894B1B6803F40033002B6CD07B68FE
:100F4C005B68002B68D101234CE27B685B68B3F5CE
:100F5C00803F06D1804B1B687F4A43F4803313607B
:100F6C002EE07B685B68002B0CD17B4B1B687A4AAC
:100F7C0023F480331360784B1B68774A23F4802367
:100F8C0013601DE07B685B68B3F5A02F0CD1724B2E
:100F9C001B68714A43F4802313606F4B1B686E4AC5
:100FAC0043F4803313600BE06B4B1B686A4A23F4E9
:100FBC0080331360684B1B68674A23F480231360EB
:100FCC007B685B68002B13D0FFF758FB386108E097
:100FDC00FFF754FB02463B69D31A642B01D9032358
:100FEC0000E25D4B1B6803F40033002BF0D014E0DF
:100FFC00FFF744FB386108E0FFF740FB02463B6912
:10100C00D31A642B01D90323ECE1534B1B6803F473
:10101C000033002BF0D100E000BF7B681B6803F0AD
:10102C000203002B63D04C4B5B6803F00C03002BCA
:10103C000BD0494B5B6803F00C03082B1CD1464BBF
:10104C005B6803F48033002B16D1434B1B6803F011
:10105C000203002B05D07B681B69012B01D00123F7
:10106C00C0E13D4B1B6823F0F8027B685B69DB0039
:10107C00394913430B603AE07B681B69002B20D085
:10108C00364B01221A60FFF7F9FA386108E0FFF7D6
:10109C00F5FA02463B69D31A022B01D90323A1E1CD
:1010AC002D4B1B6803F00203002BF0D02A4B1B685E
:1010BC0023F0F8027B685B69DB00274913430B6064
:1010CC0015E0264B00221A60FFF7D8FA386108E0C9
:1010DC00FFF7D4FA02463B69D31A022B01D903233A
:1010EC0080E11D4B1B6803F00203002BF0D17B68E1
:1010FC001B6803F00803002B3AD07B689B69002B1C
:10110C0019D0174B01221A60FFF7B8FA386108E0C2
:10111C00FFF7B4FA02463B69D31A022B01D9032319
:10112C0060E10D4B5B6A03F00203002BF0D0012051
:10113C0000F0CEFA1CE00A4B00221A60FFF79EFA70
:10114C0038610FE0FFF79AFA02463B69D31A022B7B
:10115C0008D9032346E100BF0010024000004242C0
:10116C0080044242924B5B6A03F00203002BE9D1EC
:10117C007B681B6803F00403002B00F0A68000239F
:10118C00FB758B4BDB6903F08053002B0DD1884B27
:10119C00DB69874A43F08053D361854BDB6903F0ED
:1011AC008053BB60BB680123FB75824B1B6803F447
:1011BC008073002B18D17F4B1B687E4A43F48073DD
:1011CC001360FFF75BFA386108E0FFF757FA024645
:1011DC003B69D31A642B01D9032303E1754B1B68BC
:1011EC0003F48073002BF0D07B68DB68012B06D1F5
:1011FC006F4B1B6A6E4A43F0010313622DE07B6850
:10120C00DB68002B0CD16A4B1B6A694A23F0010383
:10121C001362674B1B6A664A23F0040313621CE0DB
:10122C007B68DB68052B0CD1614B1B6A604A43F071
:10123C00040313625E4B1B6A5D4A43F001031362A5
:10124C000BE05B4B1B6A5A4A23F001031362584BA9
:10125C001B6A574A23F0040313627B68DB68002B7C
:10126C0015D0FFF70BFA38610AE0FFF707FA0246D0
:10127C003B69D31A41F28832934201D90323B1E07E
:10128C004B4B1B6A03F00203002BEED014E0FFF76C
:10129C00F5F938610AE0FFF7F1F902463B69D31A18
:1012AC0041F28832934201D903239BE0404B1B6AE5
:1012BC0003F00203002BEED1FB7D012B05D13C4B3F
:1012CC00DB693B4A23F08053D3617B68DB69002BDD
:1012DC0000F08780364B5B6803F00C03082B61D061
:1012EC007B68DB69022B46D1334B00221A60FFF777
:1012FC00C5F9386108E0FFF7C1F902463B69D31A1A
:10130C00022B01D903236DE0294B1B6803F00073FA
:10131C00002BF0D17B681B6AB3F5803F08D1244BBE
:10132C005B6823F400327B689B68214913434B6054
:10133C001F4B5B6823F474127B68196A7B685B6AC9
:10134C000B431B4913434B601B4B01221A60FFF7E5
:10135C0095F9386108E0FFF791F902463B69D31A19
:10136C00022B01D903233DE0114B1B6803F00073E2
:10137C00002BF0D035E0104B00221A60FFF77EF9FD
:10138C00386108E0FFF77AF902463B69D31A022B61
:10139C0001D9032326E0064B1B6803F00073002BD6
:1013AC00F0D11EE07B68DB69012B07D1012319E02A
:1013BC000010024000700040600042420B4B5B6822
:1013CC00FB60FB6803F480327B681B6A9A4206D18F
:1013DC00FB6803F470127B685B6A9A4201D00123AC
:1013EC0000E0002318461837BD4680BD00100240AF
:1013FC0080B584B000AF786039607B68002B01D178
:10140C000123D0E06A4B1B6803F007033A689A4249
:10141C0010D9674B1B6823F0070265493B681343DF
:10142C000B60634B1B6803F007033A689A4201D0C8
:10143C000123B8E07B681B6803F00203002B20D06B
:10144C007B681B6803F00403002B05D0594B5B68C9
:10145C00584A43F4E06353607B681B6803F008034D
:10146C00002B05D0534B5B68524A43F460535360D6
:10147C00504B5B6823F0F0027B689B684D4913432B
:10148C004B607B681B6803F00103002B40D07B682A
:10149C005B68012B07D1474B1B6803F40033002B0F
:1014AC0015D101237FE07B685B68022B07D1414B90
:1014BC001B6803F00073002B09D1012373E03D4B33
:1014CC001B6803F00203002B01D101236BE0394BA5
:1014DC005B6823F003027B685B68364913434B60FF
:1014EC00FFF7CCF8F8600AE0FFF7C8F80246FB6893
:1014FC00D31A41F28832934201D9032353E02D4B86
:10150C005B6803F00C027B685B689B009A42EBD132
:10151C00274B1B6803F007033A689A4210D2244BFE
:10152C001B6823F0070222493B6813430B60204BD6
:10153C001B6803F007033A689A4201D0012332E09A
:10154C007B681B6803F00403002B08D0194B5B6805
:10155C0023F4E0627B68DB68164913434B607B68BD
:10156C001B6803F00803002B09D0124B5B6823F4B3
:10157C0060527B681B69DB000E4913434B6000F023
:10158C0021F802460B4B5B681B0903F00F030A4959
:10159C00CB5C22FA03F3094A1360094B1B6818460B
:1015AC00FFF72AF8002318461037BD4680BD00BF50
:1015BC000020024000100240E41B00080000002044
:1015CC000400002080B487B000AF0023FB60002330
:1015DC00BB6000237B6100237B6000233B611E4BBF
:1015EC005B68FB60FB6803F00C03042B02D0082B38
:1015FC0003D027E0194B3B6127E0FB689B0C03F001
:10160C000F03174AD35C7B60FB6803F48033002B19
:10161C0010D0114B5B685B0C03F00103114AD35CD7
:10162C00BB607B680D4A03FB02F2BB68B2FBF3F3B1
:10163C007B6104E07B680C4A02FB03F37B617B69F2
:10164C003B6102E0054B3B6100BF3B6918461C3710
:10165C00BD4680BC704700BF0010024000127A00EB
:10166C00FC1B00080C1C000800093D0080B400AFF6
:10167C00024B1B681846BD4680BC7047000000201A
:10168C0080B500AFFFF7F2FF0246054B5B681B0A03
:10169C0003F007030349CB5C22FA03F3184680BD21
:1016AC0000100240F41B000880B500AFFFF7DEFF0E
:1016BC000246054B5B68DB0A03F007030349CB5C6E
:1016CC0022FA03F3184680BD00100240F41B0008F8
:1016DC0080B485B000AF78600A4B1B680A4AA2FB45
:1016EC0003235B0A7A6802FB03F3FB6000BFFB6811
:1016FC005A1EFA60002BF9D100BF00BF1437BD464B
:10170C0080BC704700000020D34D621080B582B0C1
:10171C0000AF78607B68002B01D1012342E07B682D
:10172C0093F84130DBB2002B06D17B68002283F8A2
:10173C0040207868FEF772FE7B68242283F84120F3
:10174C007B681B68DA687B681B6822F40052DA60DD
:10175C00786800F071F97B681B681A697B681B68F4
:10176C0022F490421A617B681B685A697B681B687B
:10177C0022F02A025A617B681B68DA687B681B6856
:10178C0042F40052DA607B6800225A647B682022A3
:10179C0083F841207B68202283F842207B6800225A
:1017AC005A63002318460837BD4680BD80B58AB001
:1017BC0002AFF860B9603B601346FB8000237B618D
:1017CC00FB6893F84130DBB2202B75D1BB68002B42
:1017DC0002D0FB88002B01D101236EE0FB680022B4
:1017EC005A64FB68212283F84120FEF747FF786199
:1017FC00FB68FA889A84FB68FA88DA84FB689B6831
:10180C00B3F5805F08D1FB681B69002B04D1002362
:10181C00FB61BB68BB6103E0BB68FB610023BB6180
:10182C002EE03B6800937B6900228021F86800F071
:10183C0048F80346002B05D0FB68202283F8412092
:10184C0003233AE0FB69002B0BD1BB691B881A46BA
:10185C00FB681B68C2F308025A60BB690233BB61A8
:10186C0007E0FB691A78FB681B685A60FB69013357
:10187C00FB61FB68DB8C9BB2013B9AB2FB68DA84A0
:10188C00FB68DB8C9BB2002BCBD13B6800937B6954
:10189C0000224021F86800F014F80346002B05D014
:1018AC00FB68202283F84120032306E0FB682022FA
:1018BC0083F84120002300E0022318462037BD4660
:1018CC0080BD80B586B000AFF860B9603B60134650
:1018DC00FB713BE03B6AB3F1FF3F37D0FEF7CEFE26
:1018EC0002463B68D31A3A6A9A4202D33B6A002BEF
:1018FC0001D103233AE0FB681B68DB6803F00403A7
:10190C00002B23D0BB68802B20D0BB68402B1DD074
:10191C00FB681B681B6803F00803082B16D1002317
:10192C007B61FB681B681B687B61FB681B685B68E1
:10193C007B617B69F86800F01DF8FB6808225A642B
:10194C00FB68002283F8402001230FE0FB681B6832
:10195C001A68BB681340BA689A420CBF0123002373
:10196C00DBB21A46FB799A42B4D0002318461837DA
:10197C00BD4680BD80B495B000AF78607B681B68B5
:10198C000C337B637B6B53E8003F3B633B6B23F473
:10199C009073FB647B681B680C33FA6C3A64FB63D2
:1019AC00F96B3A6C41E80023BB63BB6B002BE5D1B0
:1019BC007B681B6814333B623B6A53E8003FFB6156
:1019CC00FB6923F00103BB647B681B681433BA6C9E
:1019DC00FA62BB62B96AFA6A41E800237B627B6AED
:1019EC00002BE5D17B681B6B012B19D17B681B6825
:1019FC000C33FB60FB6853E8003FBB60BB6823F013
:101A0C0010037B647B681B680C337A6CBA617B6156
:101A1C007969BA6941E800233B613B69002BE5D148
:101A2C007B68202283F842207B6800221A6300BF67
:101A3C005437BD4680BC704780B584B000AF786029
:101A4C007B681B681B6923F440517B68DA687B68F0
:101A5C001B680A431A617B689A687B681B691A4386
:101A6C007B685B691343BB607B681B68DB6823F492
:101A7C00B05323F00C037A681268B9680B43D36037
:101A8C007B681B685B6923F440717B689A697B688F
:101A9C001B680A435A617B681B682C4A934203D12A
:101AAC00FFF702FEF86002E0FFF7EAFDF860FA6863
:101ABC0013469B0013449A001A447B685B689B0096
:101ACC00B2FBF3F3224AA2FB03235B091901FA6868
:101ADC0013469B0013449A001A447B685B689B0076
:101AEC00B2FBF3F21A4BA3FB02035B09642000FB6D
:101AFC0003F3D31A1B013233154AA2FB03235B09F0
:101B0C0003F0F0031944FA6813469B0013449A003F
:101B1C001A447B685B689B00B2FBF3F20C4BA3FB93
:101B2C0002035B09642000FB03F3D31A1B0132335D
:101B3C00074AA2FB03235B0903F00F027B681B68B7
:101B4C000A449A6000BF1037BD4680BD0038014082
:101B5C001F85EB5103460244934200D1704703F8B2
:101B6C00011BF9E770B500260C4D0D4B5B1B9C104F
:101B7C00A64209D1002600F019F80A4D0A4B5B1B4E
:101B8C009C10A64205D170BD55F8043B9847013610
:101B9C00EEE755F8043B98470136F2E7101C0008B5
:101BAC00101C0008101C0008141C0008F8B500BF1D
:101BBC00F8BC08BC9E467047F8B500BFF8BC08BC22
:041BCC009E4670477A
:101BD00048454C4C4F2046524F4D2053544D3332C4
:101BE00000000000000000000000000001020304EB
:101BF00006070809000000000102030402030405AF
:101C0000060708090A0B0C0D0E0F10100102000048
:041C10003101000896
:041C14000D010008B6
:0C1C180000127A00100000000100000023
:040000050800058D5D
:00000001FF
